:04000000A8EF3FF036
:107F50000001ABEF3FF0000E956E000E8C6EC30E6D
:107F6000926E040E896E0B0E026E260E016E5E0E70
:107F7000E82EFED7012EFCD7022EFAD76F0E8C6E9C
:107F8000060E026E130E016EAE0EE82EFED7012E07
:107F9000FCD7022EFAD77F0E8C6E060E026E130EE1
:107FA000016EAE0EE82EFED7012EFCD7022EFAD7B8
:107FB0006F0E8C6E060E026E130E016EAE0EE82E64
:107FC000FED7012EFCD7022EFAD7060E8C6E060EB7
:107FD000026E130E016EAE0EE82EFED7012EFCD7F8
:107FE000022EFAD77F0E8C6E060E026E130E016EF5
:107FF000AE0EE82EFED7012EFCD7022EFAD7BED742
:020000040020DA
:08000000FFFFFFFFFFFFFFFF00
:020000040030CA
:0E000000FF081E1EFF0381FF0FC00FE00F4020
:00000001FF
