:0400000007EF00F016
:100008001B8209ED00F0B2EF00F00600FACF01F014
:10001800FBCF02F0E9CF03F0EACF04F0E1CF05F01F
:10002800E2CF06F0D9CF07F0DACF08F0F3CF09F026
:10003800F4CF0AF0F6CF0BF0F7CF0CF0F8CF0DF0B5
:10004800F5CF0EF0F2BAF2A428D0F29419D0C30E6C
:10005800896E17C08CFFCB0E11D0C30E896E15C0E8
:100068008CFFD30E0BD0C30E896E13C08CFFE30E2A
:1000780005D0C30E896E19C08CFFC70E896E0DD0CE
:100088008950C70AD8B4E3D70C0AD8B4E6D7180AF7
:10009800D8B4E9D7300AD8B4ECD70EC0F5FF0DC0F4
:1000A800F8FF0CC0F7FF0BC0F6FF0AC0F4FF09C049
:1000B800F3FF08C0DAFF07C0D9FF06C0E2FF05C09A
:1000C800E1FF04C0EAFF03C0E9FF02C0FBFF01C073
:1000D800FAFF1B921100000E956E000E8C6EC30E77
:1000E800926EC30E896E780ED36E0F0EC16E450EDA
:1000F800D56EF294F28AF28ED58E898A000E1A6E27
:10010800060E196E000E186E5B0E176E000E166E38
:100118004F0E156E000E146E660E136E19C011F098
:100128001AC012F017C019F018C01AF015C017F04D
:1001380016C018F013C015F014C016F011C013F053
:1001480012C014F00B0E106E260E0F6E5E0EE82E07
:10015800FED70F2EFCD7102EFAD7E0D71B901B9294
:0A016800000EF86E00016FEF00F0CA
:020000040020DA
:08000000FFFFFFFFFFFFFFFF00
:020000040030CA
:0E000000FF081E1EFF0381FF0FC00FE00F4020
:00000001FF
