:04000000B2EF3FF02C
:107F64000001B5EF3FF0000E956E000E8C6EC30E4F
:107F7400926EC30E896E060E8C6EC70E896E060E47
:107F8400026E130E016EAE0EE82EFED7012EFCD744
:107F9400022EFAD7C30E896E5B0E8C6ECB0E896EE1
:107FA400060E026E130E016EAE0EE82EFED7012EE3
:107FB400FCD7022EFAD7C30E896E4F0E8C6ED30EE9
:107FC400896E060E026E130E016EAE0EE82EFED7FB
:107FD400012EFCD7022EFAD7C30E896E660E8C6E64
:107FE400E30E896E060E026E130E016EAE0EE82EBF
:0C7FF400FED7012EFCD7022EFAD7BBD717
:020000040020DA
:08000000FFFFFFFFFFFFFFFF00
:020000040030CA
:0E000000FF081E1EFF0381FF0FC00FE00F4020
:00000001FF
