:020000040000FA
:0400000000EF08F015
:020004000000FA
:100100000A0E076EFF0E066E062EFED7072EFAD7D2
:020110001200DB
:10100000780ED36E0F0EC16E000E956EC30E926EEB
:10101000C30E896E3C0E086E08C009F0060E8C6E79
:10102000898480EC00F089945B0E8C6E898680EC5C
:1010300000F089964F0E8C6E898880EC00F08998BC
:10104000660E8C6E898A80EC00F0899A092EE6D7AC
:1010500008C009F05B0E8C6E898480EC00F08994E6
:101060004F0E8C6E898680EC00F08996660E8C6E31
:10107000898880EC00F08998060E8C6E898A80EC55
:1010800000F0899A092EE6D708C009F04F0E8C6E41
:10109000898480EC00F08994660E8C6E898680ECE1
:1010A00000F08996060E8C6E898880EC00F0899895
:1010B0005B0E8C6E898A80EC00F0899A092EE6D747
:1010C00008C009F0660E8C6E898480EC00F089946B
:1010D000060E8C6E898680EC00F089965B0E8C6E15
:1010E000898880EC00F089984F0E8C6E898A80EC9C
:0A10F00000F0899A092EE6D78FD789
:020000040030CA
:0100010008F6
:010002001EDF
:010003001EDE
:0100050003F7
:010006008574
:00000001FF
