:020000040000FA
:0400000080EF00F09D
:020004000000FA
:10010000780ED36E0F0EC16E956A926A040E896ED8
:100110006F0E8C6EB9EC00F08C6AACEC00F08C6861
:10012000B9EC00F08C6AACEC00F06F0E8C6EB9ECA0
:1001300000F08C6AACEC00F0060E8C6EB9EC00F0AE
:100140008C6AACEC00F08C68B9EC00F08C6AB9EC0D
:1001500000F0B9EC00F0DCD70A0E026E820E016EE0
:10016000FF0E006E002EFED7012EFAD7022EF6D714
:100170001200140E026E820E016EFF0E006E002E33
:0C018000FED7012EFAD7022EF6D712008F
:020000040030CA
:0100010008F6
:010002001EDF
:010003001EDE
:0100050003F7
:010006008574
:00000001FF
