:0400000007EF00F016
:0A0008001A825DED03F06AEF04F0C8
:10060000004571756970616D656E746F20656D0070
:10061000456E7472616E646F20656D006F706572F7
:100620006163616F005374616E6462790000000E53
:10063000196E000E956EF90E966E9368C168A3EC64
:1006400003F074EC04F0F288F292F28CF28E16D081
:10065000020E126E010EDBEC03F0010E136E060E9D
:10066000146E03EC04F0050E126E020EDBEC03F0C8
:10067000250E136E060E146E03EC04F01950D8A468
:1006800017D0E6D7020E126E010EDBEC03F0100E4F
:10069000136E060E146E03EC04F0020E126E020EC0
:1006A000DBEC03F01C0E136E060E146E03EC04F06C
:1006B0001950D8B407EF00F0E5D70600FACF01F0E3
:1006C000FBCF02F0E9CF03F0EACF04F0E1CF05F071
:1006D000E2CF06F0D9CF07F0DACF08F0F3CF09F078
:1006E000F4CF0AF0F6CF0BF0F7CF0CF0F8CF0DF007
:1006F000F5CF0EF0F2B2F2A808D0F2921950D8A4B9
:1007000002D0010E01D0000E196E0EC0F5FF0DC013
:10071000F8FF0CC0F7FF0BC0F6FF0AC0F4FF09C0DA
:10072000F3FF08C0DAFF07C0D9FF06C0E2FF05C02B
:10073000E1FF04C0EAFF03C0E9FF02C0FBFF01C004
:10074000FAFF1A921100000E44EC04F0340E126EFF
:10075000F20EE82EFED7122EFCD7030E5AEC04F050
:100760000D0E126EFC0EE82EFED7122EFCD7030ED5
:100770005AEC04F01D0E126E910EE82EFED7122ECA
:10078000FCD700F0030E5AEC04F0020E5AEC04F011
:10079000020E5AEC04F0080E5AEC04F0000E5AEC6B
:1007A00004F00C0E5AEC04F0000E5AEC04F0060EA5
:1007B0005AEC04F01200136E1304D8A410D0125097
:1007C0007F0F166E16380F0B146E16500F0B156E2A
:1007D00014505AEC04F015505AEC04F01200020EBA
:1007E0001318D8A412001250BF0F166E16380F0B34
:1007F000146E16500F0B156E14505AEC04F0155071
:100800005AEC04F01200000E186E000E176E10D095
:1008100017501324156E18501420166E15C0F6FFCD
:1008200016C0F7FF0800F55028EC04F0174A182A04
:1008300017501324156E18501420166E15C0F6FFAD
:1008400016C0F7FF0800F5500009D8B41200E0D731
:10085000126E12500F0B106E1250F00B116E84843A
:1008600011380F0B44EC04F084821A0EE82EFED7E8
:1008700000D08492105044EC04F084821A0EE82ECA
:10088000FED700D0849212000F6E0FA002D0838892
:1008900001D083980FA202D0838A01D0839A0FA43B
:1008A00002D0838C01D0839C0FA602D0838E1200CD
:1008B000839E1200116E8494115044EC04F08482E3
:1008C0000B0E106E620EE82EFED7102EFCD700D055
:1008D00084921200196A1A901A92000EF86E060E8F
:1008E000F76E000117EF03F0000E5AEC04F0010E52
:0608F0005AEC04F01200B6
:020000040020DA
:08000000FFFFFFFFFFFFFFFF00
:020000040030CA
:0E000000FF081E1EFF0381FF0FC00FE00F4020
:00000001FF
